:0400000080313B28E8
:100008007E1480312E008F1E0A280B2838280230D3
:1000180020006806031D112812281F28220019082D
:10002800F000F1017008F100F00170082000E6000E
:100038007108E70033286803031D23282428322881
:100048002200190820006607F00067080318670AED
:10005800F1007008E6007108E7003328000001305D
:100068002000E8022E008F120F127E100900803146
:100078003D287030840083308500203086000030B1
:10008800870024308431F1248031BB3084008430EF
:100098008500A03086000030870010308431F124BC
:1000A8008031FA015A308400003085000F308431E5
:1000B800F72480317E1020008331492B8431CB24F2
:1000C800803124302000C5001030C6000030C70041
:1000D80083311C23803100302000C500C600013068
:1000E800C7000030C8008331F9238031A0302000D8
:1000F800C5001030C6000030C70083311C23803192
:1001080029302000CC009630CB007F30890B8A281C
:10011800CB0B8A28CC0B8A288431CB248031200051
:1001280017120B302000CB006230890B9928CB0BBB
:1001380099280000200017160230E8006808031DFF
:10014800A628A728A228D5018431CB2480310030E5
:10015800200067020A30031966020318B428B5287C
:10016800BA280130D6000030D700DA2800306702FC
:100178006430031966020318C228C328C8280A3045
:10018800D6000030D700DA2803306702E8300319B8
:1001980066020318D028D128D6286430D60000304B
:1001A800D700DA28E830D6000330D7005708803A5D
:1001B800CB0080304B02031DE328013056020318A0
:1001C800E628E728E8281E2920005508513E860021
:1001D80087015708F4005608F3006708F600660818
:1001E800F5008231EA228031730881000A30F30079
:1001F8000030F40020006708F6006608F500823138
:100208007822803174082000E7007308E600013086
:10021800D5070A30F3000030F4005708F6005608F6
:10022800F50081315021803174082000D70073080F
:10023800D600DA28200051088231B222803120000D
:10024800CD0052088231B22280312000CE005308FE
:100258008231B22280312000CF0054088231B2228C
:1002680080312000D0004D30C5000430C600003079
:10027800C70083311C23803129302000CC00963000
:10028800CB007F30890B4629CB0B4629CC0B46295E
:100298008431CB24803108002000C501F41F552982
:1002A80056295D29F309F409F30A0319F40A013000
:1002B800C500F61F602961296829F509F609F50ABC
:1002C8000319F60A0130C506C601C701730874048C
:1002D80003196F2970299D290130C4007A2901303A
:1002E800F335F40D890B74290130C407F41F7D29F7
:1002F8007E2973290130C635C70D890B7F297408FB
:100308007602031D892973087502031C8C298D291F
:1003180092297308F5027408F63B46140130F43646
:10032800F30C890B93290130C402031D9C299D29D4
:100338007E2945080319A129A229A729C609C709A1
:10034800C60A0319C70A4708F4004608F30008005C
:1003580031008F131308F8390538930010170D086A
:100368008F3910388D0008302000E4000030E50097
:10037800E201E3010130DC000030DD004E30DA003C
:100388000030DB001030E0000030E1000230DE0019
:100398000030DF0082313E2281318431D92481311D
:1003A8008431852481318131FD2181318431732467
:1003B80081318531022581310130F3000030F400AC
:1003C8008331D82381310230F3000030F4008331C7
:1003D800D82381310330F3000030F4008331D8236F
:1003E80081310430F3000030F4008331D8238131A7
:1003F8000800D0302000CB00C930890B012ACB0B74
:10040800012A003230308331942381313430200086
:10041800CB00F130890B0E2ACB0B0E2A003230307C
:100428008331942381310B302000CB006230890B5B
:100438001B2ACB0B1B2A00003030833194238131D7
:100448000B302000CB006230890B282ACB0B282ADE
:10045800000020308331942381310B302000CB0001
:100468006230890B352ACB0B352A0000843173247E
:1004780081310800200011103E0038102000911032
:100488003E00B810200011113E00381120009111D3
:100498003E003812200093173E00CE13200093151B
:1004A8003E00CE11200013163E004E1220001212FC
:1004B8003E004312200091163E00B8123D000F1076
:1004C80016303E00A4003D004808E0391438C80042
:1004D8004908E0391338C90017303E00A30010302E
:1004E800A5003D000F140800F701F8017308740413
:1004F80003197F2A802AAD2A0130F9008A2A01309F
:10050800F335F40D890B842A0130F907F41F8D2A7D
:100518008E2A832A0130F735F80D890B8F2A740843
:100528007602031D992A73087502031C9C2A9D2ACA
:10053800A22A7308F5027408F63B77140130F436E2
:10054800F30C890BA32A0130F902031DAC2AAD2A4A
:100558008E2A7808F4007708F3000800F300C82A08
:100568003030E92A3130E92A3230E92A3330E92AB1
:100578003430E92A3530E92A3630E92A3730E92A91
:100588003830E92A3930E92A7308003A0319B42ABD
:10059800013A0319B62A033A0319B82A013A03198A
:1005A800BA2A073A0319BC2A013A0319BE2A033AA0
:1005B8000319C02A013A0319C22A0F3A0319C42A97
:1005C800013A0319C62AE82A5F3008007308740440
:1005D8000319EF2AF02A172B0130F700FA2A013005
:1005E800F335F40D890BF42A0130F707F41FFD2ABF
:1005F800FE2AF32A74087602031D042B7308750279
:10060800031C072B082B0C2B7308F5027408F63B08
:100618000130F436F30C890B0D2B0130F702031D62
:10062800162B172BFE2A7608F4007508F30008002D
:100638002000C901CA013A2B20004508860087011D
:10064800010884314A24833120004508013EC50051
:1006580034302000C800F130890B302BC80B302B08
:10066800003201302000C9070030CA3D4A08803AEC
:10067800C8004708803A4802031D442B460849022F
:10068800031C472B482B202B08008131AC218331D8
:1006980020001716CB302000D900EC30D800843069
:1006A800890B542BD80B542BD90B542B0000343006
:1006B8002000C5001030C6000030C70083311C235D
:1006C800833120008C1A692B6A2B652B80316220BC
:1006D80083315B2B80313B287C342F342D345C34C0
:1006E8004634413453345434203446344F3455342A
:1006F80052344934453452342034203420342034A0
:100708003C343C3452344F3456344534523420341B
:100718005434453441344D34203435343E343E3439
:100728002000C4004408F8000430F836890B992BDF
:1007380078080F39F9000430F935890BA02B7908AE
:10074800C50064084504C5004530F400F501F50A04
:100758005A088431602483312000450884311624E6
:10076800833108002000C4004408F03984319724FC
:10077800833120004408F9000430F935890BC12B76
:100788007908F039843197248331043020004402F9
:100798000318CF2BD02BD72B3430F900F230890B2C
:1007A800D32BF90BD32B0800E52B20001610F82BC0
:1007B80020009610F82B20001611F82B2000961117
:1007C800F82B7408003A0319EA2BF82B7308013A3E
:1007D8000319D92B033A0319DC2B013A0319DF2B30
:1007E800073A0319E22BF82B08003F302000450593
:1007F800C90000304605CA00471C032C042C082CED
:100808004030C9070030CA3DC71C0B2C0C2C102CDB
:100818001430C9070030CA3D490880388331B623EF
:1008280083310800F7002000640877040438F700D3
:100838007730F400F501F50A5A08843160248431D0
:100848007708FB3920006404F7007730F400F501DD
:10085800F50A5A08843160248431080004302000E5
:10086800C9000030CA004508460403193C2C3D2C39
:100878003E2CC914470848040319432C442C452C22
:10088800491449088331B623843108002000C40084
:100898004408F03901388431972484312000440811
:1008A800F9000430F935890B562C7908F0390138EC
:1008B8008431972484310800F6008431EA24843195
:1008C80076088431A92484317408860087010108D8
:1008D8008431A92484318431E324843108008431AB
:1008E800FD2484318431CB24843101302000C500BB
:1008F8000030C6000030C700C8008431322484317B
:10090800080022001F171F129F101F109F151E1589
:100918009C0144309B001D131E129E169D171D1628
:100928001D119D100800F800200064087804F800E4
:100938007830F400F501F50A5A08843160248431CE
:1009480078088431162484310800F30073082300E2
:10095800960019080139FA00B22C00002300191872
:10096800B62CB72CB12C19080139FA0008005434F8
:10097800523441344E34533446344F3452344D3467
:1009880020342034203420342034203420340130E2
:100998008331B623843120302000C5002930890BEB
:1009A800D32CC50BD32C0032080023009A12133025
:1009B80097001A08F03908389A009A160800230098
:1009C8001B151B19E82CE92CE52C080023001B1427
:1009D8001B18EF2CF02CEC2C0800FE0012001E0057
:1009E800FE0BF22C0034640080010131890BF82CD5
:1009F80000340C308331B623843108008B170B1771
:060A08002E009916080003
:020000040001F9
:0A000E008C3FFF3F9F3FFF3FFF3F85
:00000001FF
