:1000000080312A28FF34FF347E1480312E008F1E69
:100010000A280B28272822005F08803AF000803049
:100020007002031D15281A305E02031818281928BB
:10003000252822005E08A03E8600013087001908AE
:1000400081000130DE070030DF3D2E008F120F12DD
:100050007E10090080312C2822008031022080315E
:10006000EE00803103208031EF00C03084009C30EE
:100070008500CA3086000130870020309B318D23F7
:100080008031D83084009D308500203086000230D9
:10009000870048309B318D238031EF3084008730DA
:1000A0008500A03086000230870010309B318D2300
:1000B0008031FC01E83084000030850008309B313D
:1000C000872380314C3084000130850022309B3101
:1000D00087238031A0308400013085002A309B3195
:1000E000872380317E1020009E31692E21006F0809
:1000F000F4006E08F3006F08F2006E08F1009C3106
:10010000A124803171082100D6007208D7006D0843
:10011000F4006C08F3006D08F2006C08F1009C31EB
:10012000A1248031710821005607D8007208573D7C
:10013000D9005808F7005908F800890D893B89094A
:10014000F900FA0001309031C02080317A08200097
:10015000AD007908AC007808AB007708AA009331AD
:10016000EE23803120002D08D9002C08D8002B0860
:10017000D7002A08D6004130D500A030D400003086
:10018000D3000030D2009531F4258031200055088D
:10019000E9005408E8005308E7005208E6009F31E0
:1001A00012278031200067082100E7002000660840
:1001B0002100E6000130F1000030F2009C31E02423
:1001C00080310230F1000030F2009C31E0248031B7
:1001D0000330F1000030F2009C31E0248031043023
:1001E000F1000030F2009C31E024803121006708EA
:1001F000803AD60080305602031D00293230660254
:100200000318032904290E292100A001A101A10A34
:10021000A20101309C3165248031CB2F21006E0872
:100220006F040319142915291B296C086D04031D7B
:100230001A291B297E296D086F06031D21296C08C8
:100240006E06031D242925292D29A001A101A10A3B
:10025000A20101309C316524803121006E086F04B9
:10026000031D3329342959296D08803AD60080307E
:100270005602031D3D2901306C02031C402941290F
:100280004D2921006608A000A101A10A6608A2006C
:1002900001309C3165248031CB2F21006608A000FD
:1002A0000230A1006608A20002309C316524803132
:1002B000CB2F6F08803AD60080305602031D62298A
:1002C00001306E02031C6529662972292100660827
:1002D000A000A101A10A6608A20002309C31652499
:1002E0008031CB2F21006608A0000230A1006608F3
:1002F000A20001309C3165248031CB2FEF1F812972
:100300008229A72C6E08F7006F08F800890D893B39
:100310008909F900FA0001309031C02080317A0853
:100320002100B5007908B4007808B3007708B2005E
:100330006C08F7006D08F800890D893B8909F90000
:10034000FA0001309031C02080317A082100B900D4
:100350007908B8007808B7007708B60092314A22C9
:10036000803121003508DD003408DC003308DB0073
:100370003208DA005D08CF005C08CE005B08CD00D3
:100380005A08CC008A319022803121004F08EB00BE
:100390004E08EA004D08E9004C08E8000030F4007F
:1003A0000030F3000030F2000030F1006B08F8007C
:1003B0006A08F7006908F6006808F50090313520F2
:1003C00080310318E429E5292E2B0330F100003099
:1003D000F20090311420803121006B08F4006A088B
:1003E000F3006908F2006808F1003F30F800493076
:1003F000F7000F30F600DB30F5009031352080310A
:100400000318032A042AA32ABF302000E900803001
:10041000E8000030E7000030E600BF30D50049308A
:10042000D4000F30D300DB30D20021006B08200055
:10043000D90021006A082000D800210069082000A6
:10044000D700210068082000D6009531F4258031BE
:1004500020005508ED005408EC005308EB0052084A
:10046000EA00883131208031200069082100E10054
:10047000200068082100E000200067082100DF005C
:10048000200066082100DE0041302000D500A030A9
:10049000D4000030D3000030D2004230E900FE30FA
:1004A000E8000030E7000030E6002100610820008D
:1004B000ED00210060082000EC0021005F08200012
:1004C000EB0021005E082000EA00883131208031F5
:1004D00020006908D9006808D8006708D7006608B6
:1004E000D6009531F4258031200055082200DB002C
:1004F000200054082200DA00200053082200D9000E
:10050000200052082200D8005B082000E9002200E9
:100510005A082000E800220059082000E7002200C5
:1005200058082000E6009F3112278031200066081D
:100530002100A0000230A1006608A20001309C3119
:1005400065248031CB2F42302000E900FE30E800E6
:100550000030E7000030E600BF30D5004930D4005D
:100560000F30D300DB30D20021006B082000D9000F
:1005700021006A082000D800210069082000D70067
:10058000210068082000D6009531F4258031200034
:100590005508ED005408EC005308EB005208EA003F
:1005A000883131208031200069082100E5002000D9
:1005B00068082100E400200067082100E300200013
:1005C00066082100E20041302000D500A030D400B0
:1005D0000030D3000030D200210065082000D9008F
:1005E000210064082000D800210063082000D70003
:1005F000210062082000D6009531F42580312000CA
:1006000055082200DB00200054082200DA002000F8
:1006100053082200D900200052082200D8005B08AD
:100620002000E90022005A082000E80022005908B2
:100630002000E700220058082000E6009F31122722
:100640008031200066082100A0000230A100660869
:10065000A20002309C3165248031CB2FBF302000B6
:10066000E9008030E8000030E7000030E6002100BB
:100670006B082000ED0021006A082000EC0021003A
:1006800069082000EB00210068082000EA0088319A
:1006900031208031200069082100EB00200068082B
:1006A0002100EA00200067082100E9002000660818
:1006B0002100E8000230F1000030F20090311420F7
:1006C000803121006B08F4006A08F3006908F20029
:1006D0006808F1003F30F8004930F7000F30F600AD
:1006E000DB30F5009031352080310318782B792BE1
:1006F0001A2CBF302000E9008030E8000030E7000D
:100700000030E600BF30D5004930D4000F30D300B0
:10071000DB30D20021006B082000D90021006A08DC
:100720002000D800210069082000D70021006808B7
:100730002000D6009531F425803120005508ED00C9
:100740005408EC005308EB005208EA0088313120CD
:100750008031200069082100E100200068082100A4
:10076000E000200067082100DF002000660821006B
:10077000DE0041302000D500A030D4000030D3008E
:100780000030D2004230E900FE30E8000030E700DF
:100790000030E600210061082000ED002100600823
:1007A0002000EC0021005F082000EB0021005E0823
:1007B0002000EA0088313120803120006908D9000A
:1007C0006808D8006708D7006608D6009531F42578
:1007D0008031200055082200DB0020005408220050
:1007E000DA00200053082200D9002000520822001D
:1007F000D80021006608A0000230A10022005B089A
:100800002000E90022005A082000E80022005908D0
:100810002000E700220058082000E6009F31122740
:100820008031200066082100A20001309C3165243F
:100830008031CB2F42302000E900FE30E80000304C
:10084000E7000030E600BF30D5004930D4000F305B
:10085000D300DB30D20021006B082000D90021003A
:100860006A082000D800210069082000D700210074
:1008700068082000D6009531F42580312000550805
:10088000ED005408EC005308EB005208EA008831F0
:1008900031208031200069082100E500200068082F
:1008A0002100E400200067082100E3002000660822
:1008B0002100E20041302000D500A030D4000030FB
:1008C000D3000030D200210065082000D9002100AB
:1008D00064082000D800210063082000D700210010
:1008E00062082000D6009531F4258031200055089B
:1008F0002200DB00200054082200DA002000530808
:100900002200D900200052082200D80021006608E9
:10091000A000A101A10A22005B082000E90022003A
:100920005A082000E800220059082000E7002200B1
:1009300058082000E6009F31122780312000660809
:100940002100A20001309C3165248031CB2F6E083C
:10095000F7006F08F800890D893B8909F900FA0052
:1009600001309031C02080317A082100B50079082B
:10097000B4007808B3007708B2006C08F7006D087F
:10098000F800890D893B8909F900FA00013090319E
:10099000C02080317A082100B9007908B8007808B1
:1009A000B7007708B60092314A228031210035081D
:1009B000DD003408DC003308DB003208DA005D08B3
:1009C000CF005C08CE005B08CD005A08CC008A310D
:1009D0009022803121004F08EB004E08EA004D08BC
:1009E000E9004C08E8000030F4000030F30000306B
:1009F000F2000030F1006B08F8006A08F70069089F
:100A0000F6006808F5009031352080310318092D73
:100A10000A2D532E0130F1000030F20090311420E5
:100A2000803121006B08F4006A08F3006908F200C5
:100A30006808F1003F30F8004930F7000F30F60049
:100A4000DB30F5009031352080310318282D292D19
:100A5000C82DBF302000E9008030E8000030E700FA
:100A60000030E600BF30D5004930D4000F30D3004D
:100A7000DB30D20021006B082000D90021006A0879
:100A80002000D800210069082000D7002100680854
:100A90002000D6009531F425803120005508ED0066
:100AA0005408EC005308EB005208EA00883131206A
:100AB0008031200069082100E10020006808210041
:100AC000E000200067082100DF0020006608210008
:100AD000DE0041302000D500A030D4000030D3002B
:100AE0000030D2004230E900FE30E8000030E7007C
:100AF0000030E600210061082000ED0021006008C0
:100B00002000EC0021005F082000EB0021005E08BF
:100B10002000EA0088313120803120006908D900A6
:100B20006808D8006708D7006608D6009531F42514
:100B30008031200055082200DB00200054082200EC
:100B4000DA00200053082200D900200052082200B9
:100B5000D8005B082000E90022005A082000E800C5
:100B6000220059082000E700220058082000E60073
:100B70009F3112278031200066082100A000A101CA
:100B8000A10A6608A20002309C3165248031CB2F77
:100B900042302000E900FE30E8000030E70000307D
:100BA000E600BF30D5004930D4000F30D300DB3031
:100BB000D20021006B082000D90021006A08200023
:100BC000D800210069082000D70021006808200013
:100BD000D6009531F425803120005508ED005408E9
:100BE000EC005308EB005208EA00883131208031D4
:100BF000200069082100E500200068082100E400C9
:100C0000200067082100E300200066082100E200C0
:100C100041302000D500A030D4000030D300003097
:100C2000D200210065082000D900210064082000BE
:100C3000D800210063082000D700210062082000AE
:100C4000D6009531F4258031200055082200DB00C4
:100C5000200054082200DA00200053082200D900A6
:100C6000200052082200D8005B082000E900220082
:100C70005A082000E800220059082000E70022005E
:100C800058082000E6009F311227803120006608B6
:100C90002100A000A101A10A6608A20001309C3138
:100CA00065248031CB2FBF302000E9008030E80080
:100CB0000030E7000030E60021006B082000ED0066
:100CC00021006A082000EC00210069082000EB00E8
:100CD000210068082000EA0088313120803120009E
:100CE00069082100EB00200068082100EA002000CC
:100CF00067082100E900200066082100E8000430B0
:100D0000F1000030F20090311420803121006B0896
:100D1000F4006A08F3006908F2006808F1003F3047
:100D2000F8004930F7000F30F600DB30F500903165
:100D30003520803103189D2E9E2E3F2F3F302000FE
:100D4000E9008030E8000030E7000030E600BF3006
:100D5000D5004930D4000F30D300DB30D200210061
:100D60006B082000D90021006A082000D80021006B
:100D700069082000D700210068082000D6009531BE
:100D8000F425803120005508ED005408EC0053088C
:100D9000EB005208EA0088313120803120006908D8
:100DA0002100E100200068082100E0002000670821
:100DB0002100DF00200066082100DE004130200015
:100DC000D500A030D4000030D3000030D200423033
:100DD000E900FE30E8000030E7000030E6002100C6
:100DE00061082000ED00210060082000EC002100D7
:100DF0005F082000EB0021005E082000EA00883137
:100E00003120803120006908D9006808D8006708BF
:100E1000D7006608D6009531F425803120005508AA
:100E20002200DB00200054082200DA0020005308D2
:100E30002200D900200052082200D80021006608B4
:100E4000A000A101A10A22005B082000E900220005
:100E50005A082000E800220059082000E70022007C
:100E600058082000E6009F311227803120006608D4
:100E70002100A20002309C3165248031CB2F42300A
:100E80002000E900FE30E8000030E7000030E60016
:100E9000BF30D5004930D4000F30D300DB30D20052
:100EA00021006B082000D90021006A082000D8002A
:100EB000210069082000D700210068082000D60022
:100EC0009531F425803120005508ED005408EC00E0
:100ED0005308EB005208EA008831312080312000AD
:100EE00069082100E500200068082100E4002000D6
:100EF00067082100E300200066082100E20041307D
:100F00002000D500A030D4000030D3000030D20043
:100F1000210065082000D900210064082000D800C5
:100F2000210063082000D700210062082000D600BD
:100F30009531F4258031200055082200DB00200087
:100F400054082200DA00200053082200D9002000B3
:100F500052082200D80021006608A0000230A1003B
:100F600022005B082000E90022005A082000E80067
:100F7000220059082000E700220058082000E6005F
:100F80009F3112278031200066082100A200023024
:100F90009C31652480310800F900F501F6017108E3
:100FA000F300F4017308F7007408F800791CD92FD6
:100FB000DA2FDE2F7708F5077808F63D0130F73590
:100FC000F80D890BDF2F0310F90C7908031DE92FA9
:100FD000EA2FD62F7608F2007508F10008004D348C
:100FE000413447344E344534543449344334203446
:0E0FF00041344E344F344D3441344C34593476
:1010060001309C31822488312030F9002A30890B46
:101016000A28F90B0A28080023004508F8004408A6
:10102600F7004308F6004208F5007408F800730854
:10103600F7007208F6007108F500FF30F505FF307D
:10104600F605FF30F7057F30F8057808F4007708D5
:10105600F3007608F2007508F10008002000690820
:1010660080392100A500200069352100AB00200051
:10107600E81F3E283F28412821002B1421002B0879
:1010860003194628472858282B0A031D4B284C28A5
:10109600552800302000E9000030E8000030E70065
:1010A6000030E6002000E817612800302000E90043
:1010B6000030E8000030E7000030E6006D088039B7
:1010C6002100A50620006D352100AA002000EC1F96
:1010D6006D286E28702821002A1421002A08031979
:1010E6007528762887282A0A031D7A287B288428CB
:1010F60000302000ED000030EC000030EB00003046
:10110600EA002000EC17902800302000ED000030A7
:10111600EC000030EB000030EA0021002A08031939
:10112600952896289B282B08031D9A289B28A528D6
:1011360000302000E9000030E8000030E700003011
:10114600E6008F2A20006608F1006C088731CC275C
:10115600883172082100B1007108B0003008A00083
:10116600A101A201A3012308A9002208A8002108C1
:10117600A7002008A6003108A000A101A201A30132
:101186002308AF002208AE002108AD002008AC00FD
:1011960020006708F1006B088731CC278831720878
:1011A6002100B1007108B0003008A000A101A20121
:1011B600A3012008A6072108A73D2208A83D230869
:1011C600A93D3108A000A101A201A3012008AC0796
:1011D6002108AD3D2208AE3D2308AF3D200068083A
:1011E600F1006A088731CC27883172082100B100E6
:1011F6007108B0003008A000A101A201A3012008D7
:10120600A6072108A73D2208A83D2308A93D3108C5
:10121600A000A101A201A3012008AC072108AD3D51
:101226002208AE3D2308AF3D0830A635A70DA80D10
:10123600A90D890B182920006708F1006A08873173
:10124600CC27883172082100B1007108B00030083F
:10125600A6073108A73D0030A83DA93D2000660835
:10126600F1006B088731CC27883172082100B10064
:101276007108B0003008A6073108A73D0030A83D28
:10128600A93D0830A635A70DA80DA90D890B45293E
:1012960020006608F1006A088731CC278831720879
:1012A6002100B1007108B0003008A6073108A73D3B
:1012B6000030A83DA93D20006708F1006C08873181
:1012C600CC27883172082100B1007108B0003008BF
:1012D600AC073108AD3D0030AE3DAF3D200068089B
:1012E600F1006B088731CC27883172082100B100E4
:1012F6007108B0003008AC073108AD3D0030AE3D96
:10130600AF3D20006808F1006C088731CC27883192
:1013160072082100B1007108B0003008A000310841
:10132600A100A201A3010830A035A10DA20DA30DB5
:10133600890B97292008AC072108AD3D2208AE3D50
:101346002308AF3D2608A0002708A1002808A20010
:101356002908A3001830A336A20CA10CA00C890BF7
:10136600AE292008AC072108AD3D2208AE3D230872
:10137600AF3D0830A635A70DA80DA90D890BBD29CF
:101386002B082A07A000A101A10D2008823EB0006B
:10139600FF30213DB100E6290130AC35AD0DAE0D73
:1013A600AF0D890BD029A91FD929DA29DB292C14DD
:1013B6000130A635A70DA80DA90D890BDC29FF3034
:1013C600B007FF30B13DAE1FE929EA29CF29AA01AE
:1013D600A91FEE29EF290B2AFF302605A000FF30B2
:1013E6002705A100FF302805A2007F302905A300AC
:1013F60023082204210420040319022A032A062AA8
:101406000130AA000B2A2C1C092A0A2A0B2A032AB5
:101416002A0803190F2A102A362A0130AC07003091
:10142600AD3DAE3DAF3D2F1C192A1A2A362A2C088F
:10143600A0002D08A1002E08A2002F08A30001304D
:10144600A400A337A20CA10CA00CA40B242A2308E9
:10145600AF002208AE002108AD002008AC00013024
:10146600B0070030B13D3108803AA000803020023C
:10147600031D3F2AFF303002031C422A432A4D2A0D
:101486007F302100AF008030AE000030AD0000306C
:10149600AC007E2A21003108803AA000803020026C
:1014A600031D572A0130300203185A2A5B2A662A7E
:1014B60000302100AF000030AE000030AD0000303B
:1014C600AC00A5017E2A21003008AB00FF30AC0538
:1014D600FF30AD057F30AE050030AF052B1C742AFA
:1014E600752A762AAE172B08A0000130A036890B84
:1014F600792A2008AF002508AF042F082000E9004C
:1015060021002E082000E80021002D082000E70019
:1015160021002C082000E600080021004F082200C8
:10152600C90021004E082200C80021004D082200F3
:10153600C70021004C082200C600C91BA32AA52A01
:101546000130A62A0030BC00FF30C605FF30C705B3
:10155600FF30C8057F30C905803048024C30493B12
:10156600031CB62AB72A2C2B21004F08F4004E087C
:10157600F3004D08F2004C08F1009F3181278A31B3
:1015860071087204031DC82AC92ACA2AFF2F03300C
:101596002000D5008030D4000030D3000030D200C7
:1015A6001C30840098308500003F2100D000013FA8
:1015B600D100023FD200033FD30053082000D900D8
:1015C600210052082000D800210051082000D70031
:1015D600210050082000D6009531F4258A312000DC
:1015E60055082200C500200054082200C40020002F
:1015F60053082200C300200052082200C2003C0803
:10160600031D062B072B172B45082100CF002200B0
:1016160044082100CE00220043082100CD0022000C
:1016260042082100CC00FF2F4508F4004408F300CF
:101636004308F2004208F1009B31B4238A31740852
:101646002100CF007308CE007208CD007108CC00CF
:10165600FF2FE030220048023E30493B0318342B6E
:10166600352B432B8030220048023930493B031882
:101676003D2B3E2B3F2BC92AFF302200C100F22C06
:1016860021004F08F4004E08F3004D08F2004C0804
:10169600F10088310F208A3174082100CF007308C9
:1016A600CE007208CD007108CC00983022004802A6
:1016B6003F30493B0318602B612B4D2C3030220004
:1016C60048023F30493B0318692B6A2BE52B220061
:1016D600C10140302000D5000030D4000030D300D6
:1016E6000030D20021004F082000D90021004E080A
:1016F6002000D80021004D082000D70021004C080A
:101706002000D6009531F4258A31200055082100A5
:10171600B500200054082100B40020005308210021
:10172600B300200052082100B200BF302000D500CF
:101736008030D4000030D3000030D2004030E900C1
:101746000030E8000030E7000030E60021004F08D6
:101756002000ED0021004E082000EC0021004D087D
:101766002000EB0021004C082000EA0088313120DF
:101776008A3120006908D9006808D8006708D700B0
:101786006608D6009531F4258A31200055082100D7
:10179600B900200054082100B80020005308210099
:1017A600B700200052082100B60092314A228A3141
:1017B60021003508CF003408CE003308CD003208AA
:1017C600CC00F22C01302200C1003F302000D500B1
:1017D6008030D4000030D3000030D20021004F0802
:1017E6002000D90021004E082000D80021004D0815
:1017F6002000D70021004C082000D6009531F425A2
:101806008A31200055082100B50020005408210027
:10181600B400200053082100B30020005208210024
:10182600B200BF302000D5008030D4000030D30095
:101836000030D20021004F082000D90021004E08B8
:101846002000D80021004D082000D70021004C08B8
:101856002000D6009531F4258A3120005508210054
:10186600B900200054082100B800200053082100C8
:10187600B700200052082100B60092314A228A3170
:1018860021003508CF003408CE003308CD003208D9
:10189600CC00F22C1C30220048024030493B031891
:1018A600552C562CD22C02302200C1003F3020008D
:1018B600D5008030D4000030D3000030D2003F3055
:1018C600E900C030E8000030E7000030E600210003
:1018D6004F082000ED0021004E082000EC002100FA
:1018E6004D082000EB0021004C082000EA0088315A
:1018F60031208A3120006908D9006808D8006708B5
:10190600D7006608D6009531F4258A31200055089F
:101916002100B500200054082100B400200053081F
:101926002100B300200052082100B200BF30200081
:10193600D500C030D4000030D3000030D2002100E2
:101946004F082000D90021004E082000D8002100B1
:101956004D082000D70021004C082000D600953104
:10196600F4258A31200055082100B90020005408CA
:101976002100B800200053082100B70020005208BB
:101986002100B60092314A228A3121003508CF0063
:101996003408CE003308CD003208CC00F22C0330D8
:1019A6002200C10021004F08B5004E08B4004D08C2
:1019B600B3004C08B200BF30B9008030B800003028
:1019C600B7000030B60092314A228A31210035082C
:1019D600CF003408CE003308CD003208CC002100F9
:1019E6004F082000E90021004E082000E8002100F1
:1019F6004D082000E70021004C082000E6002100E9
:101A06004F082000ED0021004E082000EC002100C8
:101A16004D082000EB0021004C082000EA00883128
:101A260031208A31200069082200C500200068089C
:101A36002200C400200067082200C30020006608B8
:101A46002200C20045082000E900220044082000C8
:101A5600E800220043082000E70022004208200098
:101A6600E600220045082000ED0022004408200080
:101A7600EC00220043082000EB0022004208200070
:101A8600EA00883131208A31200069082200C0002E
:101A9600200068082200BF00200067082200BE0060
:101AA600200066082200BD003E302000D50011301F
:101AB600D400F530D3000D30D2003D30E9007C3043
:101AC600E800AC30E7002530E600220040082000A0
:101AD600ED0022003F082000EC0022003E08200016
:101AE600EB0022003D082000EA00883131208A31CF
:101AF60020006908D9006808D8006708D70066087A
:101B0600D6009531F4258A31200055082200B70009
:101B1600200054082200B600200053082200B50019
:101B2600200052082200B4003E302000D500AA3022
:101B3600D400AA30D300A930D200220040082000E9
:101B4600E90022003F082000E80022003E082000AD
:101B5600E70022003D082000E600220037082000AA
:101B6600ED00220036082000EC0022003508200097
:101B7600EB00220034082000EA00883131208A3147
:101B860020006908D9006808D8006708D7006608E9
:101B9600D6009531F4258A31200055082200A3008D
:101BA600200054082200A200200053082200A100B1
:101BB600200052082200A00045082000E90022006B
:101BC60044082000E800220043082000E700220025
:101BD60042082000E600220023082000ED00220033
:101BE60022082000EC00220021082000EB00220041
:101BF60020082000EA00883131208A312000690857
:101C06002200AF00200068082200AE00200067080E
:101C16002200AD00200066082200AC00BE30200085
:101C2600D5004C30D400CA30D3009830D200BD3035
:101C3600E900DA30E8001230E7004730E60022001B
:101C460040082000ED0022003F082000EC002200A2
:101C56003E082000EB0022003D082000EA00883103
:101C660031208A3120006908D9006808D800670841
:101C7600D7006608D6009531F4258A31200055082C
:101C86002200B700200054082200B60020005308A6
:101C96002200B500200052082200B40040082000AF
:101CA600E90022003F082000E80022003E0820004C
:101CB600E70022003D082000E60022003708200049
:101CC600ED00220036082000EC0022003508200036
:101CD600EB00220034082000EA00883131208A31E6
:101CE600200069082200B300200068082200B20024
:101CF600200067082200B100200066082200B0001C
:101D0600C11F862E872EFA2E21004F082000E900DB
:101D160021004E082000E80021004D082000E700C1
:101D260021004C082000E600220033082000D500E0
:101D3600220032082000D400220031082000D300FF
:101D4600220030082000D20022002F082000D900EF
:101D560022002E082000D80022002D082000D700DF
:101D660022002C082000D6009531F4258A31200067
:101D76005508ED005408EC005308EB005208EA0041
:101D8600883131208A31200069082200BB002000FA
:101D960068082200BA00200067082200B900200067
:101DA60066082200B8003B082100A30022003A087A
:101DB6002100A200220039082100A10022003808D3
:101DC6002100A0004F08A7004E08A6004D08A50058
:101DD6004C08A4009D3122258A3121002308CF001A
:101DE6002208CE002108CD002008CC00FF2F2100BC
:101DF6004F082000E90021004E082000E8002100DD
:101E06004D082000E70021004C082000E6002200D3
:101E160033082000D500220032082000D40022001A
:101E260031082000D300220030082000D200220012
:101E36002F082000D90022002E082000D8002200FA
:101E46002D082000D70022002C082000D60095314E
:101E5600F4258A3120005508ED005408EC0053089B
:101E6600EB005208EA00883131208A3120006908E7
:101E76002200BB00200068082200BA002000670884
:101E86002200B900200066082200B800410821009F
:101E9600D000D101D035D10DD035D10D003050074D
:101EA60084001830513D80388500003FD200013F44
:101EB600D300023FD400033FD5005508A3005408C1
:101EC600A2005308A1005208A00022003B082100EE
:101ED600A70022003A082100A600220039082100A6
:101EE600A500220038082100A4009D3122258A3150
:101EF600210023082200A700210022082200A600B4
:101F0600210021082200A500210020082200A400AB
:101F160021004F08A3004E08A2004D08A1004C085E
:101F2600A000220027082100A70022002608210081
:101F3600A600220025082100A50022002408210071
:101F4600A4009D3122258A31210023082200AB00FE
:101F5600210022082200AA00210021082200A9004F
:101F6600210020082200A8002B082100A30022003F
:101F76002A082100A200220029082100A10022002F
:101F860028082100A000220041082100D000D1012C
:101F9600D035D10DD035D10D103050078400183012
:101FA600513D80388500003FD200013FD300023FFB
:101FB600D400033FD5005508A7005408A6005308CF
:101FC600A5005208A4009D3122258A31210023084C
:101FD6002200C500210022082200C4002100210899
:101FE6002200C300210020082200C2003C08031D75
:101FF600FD2FFE2F172B072B0800F1007108230079
:102006009600190801392200E9000A280000230079
:1020160019180E280F280928190801392200E90085
:10202600080021282000161434282000961434288D
:102036002000161534282000961534287208003A18
:102046000319262834287108013A03191528033A7A
:1020560003191828013A03191B28073A03191E28E1
:1020660034280800003071052000A00000307205F9
:10207600A10080307305A2007F307405A3002308F9
:10208600220421042004031D49284A28522800302E
:10209600F4000030F3000030F2000030F1000030B0
:1020A6007505A00000307605A10080307705A200F6
:1020B6007F307805A3002308220421042004031D91
:1020C600652866286E280030F8000030F7000030DA
:1020D600F6000030F500F41F712872288A280030B7
:1020E600A0000030A1000030A2008030A3007108DB
:1020F600A0027208A13B7308A23B7408A33B230805
:10210600F4002208F3002108F2002008F100F81F6D
:102116008D288E28A6280030A0000030A1000030AF
:10212600A2008030A3007508A0027608A13B7708BC
:10213600A23B7808A33B2308F8002208F7002108F1
:10214600F6002008F5008030F4068030F80678089E
:102156007402031DB82877087302031DB828760891
:102166007202031DB828750871020318BB28BC2823
:10217600BE280310BF28031408002000A40024086A
:102186000319C628C728DB28FA1FCA28CB28DB284C
:102196007709A6007809A7007909A8007A09A90095
:1021A600A60A0319A70A0319A80A0319A90AE32804
:1021B6007A08A9007908A8007808A7007708A60079
:1021C6007A08790478047704031DEA28EB28F428B2
:1021D6000030FA000030F9000030F8000030F70057
:1021E60064299630A50000290130A5070130A936DB
:1021F600A80CA70CA60C890BFA28FE302905031D8E
:1022060005290629F72816290130A5070130A60752
:102216000030A73DA83DA93D0130A936A80CA70C62
:10222600A60C890B1029FF302905031D1B291C2923
:10223600072926290130A5020130A635A70DA80DCC
:10224600A90D890B2029A81B29292A293029023002
:10225600250203182F2930291D2925183329342949
:102266003C29FF30A605FF30A7057F30A805FF30C3
:10227600A9050310A50C2508A000A101A201A30130
:102286001830A035A10DA20DA30D890B44292008F5
:10229600A6042108A7042208A8042308A9042408E0
:1022A6000319562957295C29FA1F5A295B295C29E3
:1022B600A9172908FA002808F9002708F8002608AF
:1022C600F7000800230026082000A000A101230033
:1022D60027082000A200A3012208A300A2012008CB
:1022E60022042100EE002000210823042100EF0033
:1022F60023002C082000A000A10123002D082000A7
:10230600A200A3012208A300A201200822042200A1
:10231600E4002000210823042200E5002300280809
:102326002000A000A101230029082000A200A3018B
:102336002208A300A201200822042100EC002000AC
:10234600210823042100ED0023002A082000A00014
:10235600A10123002B082000A200A3012208A3004C
:10236600A201200822042200E20020002108230402
:102376002200E300230036082000A000A10123006C
:1023860037082000A200A3012208A300A20120080A
:1023960022042200E0002000210823042200E1009C
:1023A600230038082000A000A101230039082000DE
:1023B600A200A3012208A300A201200822042200F1
:1023C600E0002000210823042200E1001830E00785
:1023D600FC30E13DFA30F1000030F2006108F40013
:1023E6006008F3009E31B726913172082200E100A1
:1023F6007108E0000830F1000030F20021006E089C
:10240600243EF300FA306F3DF4009E31B726913139
:1024160072082100EF007108EE000830F10000306C
:10242600F20022006408243EF300FA30653DF40011
:102436009E31B726913172082200E5007108E4004A
:102446000830F1000030F20021006C08243EF30051
:10245600FA306D3DF4009E31B726913172082100A5
:10246600ED007108EC000830F1000030F2002200A7
:102476006208243EF300FA30633DF4009E31B7262D
:10248600913172082200E3007108E2000800210081
:1024960039088039C3003935CA00B81F532A542A6F
:1024A600552A4A144A080319592A5A2A6A2A4A0AEC
:1024B600031D5E2A5F2A672A0030B9000030B80083
:1024C6000030B7000030B600B817B901722A0030E4
:1024D600B9000030B8000030B7000030B60035084B
:1024E6008039C3063535CB00B41F7A2A7B2A7C2A6D
:1024F6004B144B080319802A812A912A4B0A031D83
:10250600852A862A8E2A0030B5000030B4000030B5
:10251600B3000030B200B417B501992A0030B500F7
:102526000030B4000030B3000030B2003508340487
:1025360033043204031DA02AA12AB82A0030B900A8
:102546000030B8000030B7000030B6008030B80464
:102556007F30B9044308B9043908B5003808B40017
:102566003708B3003608B200ED2B4A08031DBC2A13
:10257600BD2AC62A0030B5000030B4000030B300D2
:102586000030B200ED2B4A08BA00BB013B08BD0083
:102596004B083A02BC00031CBD033C087F3EC40046
:1025A60000303D3DC5003908C2003808C100370873
:1025B600C0003608BF000030B9000030B800003057
:1025C600B7000030B6000030C9000030C800003047
:1025D600C7000030C600CB012C2B4B080319F42A88
:1025E600F52A0F2B0130BF35C00DC10DC20D890B69
:1025F600F62A0130B635B70DB80DB90D890BFD2A8F
:10260600C91F062B072B082B36140130C635C70DFC
:10261600C80DC90D890B092B35084202031D1D2B58
:1026260034084102031D1D2B33084002031D1D2BD8
:1026360032083F02031C202B212B2A2B4917320874
:10264600BF023308C03B3408C13B3508C23B0130EA
:10265600CB071A304B02031C312B322BF02A4208CF
:10266600410440043F040319392B3A2B532B4614DB
:10267600532B0130B635B70DB80DB90D890B3D2B6F
:10268600C91F462B472B482B36140130C635C70DBC
:10269600C80DC90D890B492BFF30C407FF30C53D56
:1026A600B81F562B572B3C2BCB01C91F5B2B5C2B22
:1026B600782BFF304605BA00FF304705BB00FF30D8
:1026C6004805BC007F304905BD003D083C043B047D
:1026D6003A0403196F2B702B732B0130CB00782B28
:1026E600361C762B772B782B702B4B0803197C2BFB
:1026F6007D2BA32B0130B6070030B73DB83DB93D61
:10270600391C862B872BA32B3608BA003708BB004B
:102716003808BC003908BD000130BE00BD37BC0C0E
:10272600BB0CBA0CBE0B912B3D08B9003C08B80097
:102736003B08B7003A08B6000130C4070030C53D73
:102746004508803ABA0080303A02031DAC2BFF30B0
:102756004402031CAF2BB02BBD2BFF302100C4005D
:102766000030C5000030B9000030B8000030B700B6
:102776000030B60021004508803ABA0080303A029F
:10278600031DC72B013044020318CA2BCB2BD72BB2
:102796002100C401C5010030B9000030B800003086
:1027A600B7000030B600C30121004408CA004A1C25
:1027B600DD2BDE2BE02BB817E22B7F30B8054A085D
:1027C600BA000130BA36890BE52B3A08B90043083E
:1027D600B904AF2A080020002D08D1002C08D0002B
:1027E6002B08CF002A08CE0000304E05AE00003080
:1027F6004F05AF0080305005B0007F305105B10065
:10280600803030067F30031931062E042F04031D55
:102816000D2C0E2C382CFF3020004E05AE00FF305C
:102826004F05AF007F305005B00000305105B100B4
:10283600310830042F042E04031D222C232C272CB0
:10284600D11F262C272C2F2CFF30CE04FF30CF048F
:102856007F30D0040030D1045108AD005008AC00E0
:102866004F08AB004E08AA00F32D2000D11B4A2CBE
:102876005108031D492C5008031D492C4F08031D00
:10288600492C01304E020318492C4A2C832CFF3068
:1028960020004E05AE00FF304F05AF00FF3050055B
:1028A600B0007F305105B100310830042F042E04EA
:1028B600031D5E2C5F2C682C0030AD000030AC0090
:1028C6000030AB000030AA00F32DD11F6B2C6C2C0E
:1028D600832C21302200DC000030DD007F30200018
:1028E600D100FF30D000FF30CF00FF30CE005108BE
:1028F600AD005008AC004F08AB004E08AA00F32DFF
:1029060020004E08AE004F08AF005008B000510836
:10291600B1001730B200B137B00CAF0CAE0CB20B31
:102926008E2C3108C9003008C8002F08C7002E08B1
:10293600C6004908480447044604031DA32CA42CDA
:10294600D62C0030BD000030BC000030BB0000308B
:10295600BA00BA2C0130CE35CF0DD00DD10D890B72
:10296600AE2C0130BA070030BB3DBC3DBD3DD01F8B
:10297600BD2CBE2CAD2CFF30AE00FF30AF00FF30BB
:10298600B000FF30B1003A08AE073B08AF3D3C0847
:10299600B03D3D08B13D2E08C6022F08C73B3008A2
:1029A600C83B3108C93B8130C607FF30C73DFF3001
:1029B600C83DFF30C93D0030AE000030AF0080306A
:1029C600B0000030B100FF304E05B200FF304F05B9
:1029D600B3007F305005B40000305105B500320811
:1029E600AE043308AF043408B0043508B104310826
:1029F600D1003008D0002F08CF002E08CE00461C8C
:102A0600052D062D0E2D4E08CE074F08CF3D50083A
:102A1600D03D5108D13D0130AE00C937C80CC70CB6
:102A2600C60CAE0B102D4E08CE074F08CF3D5008F2
:102A3600D03D5108D13D0030B9000030B80000301B
:102A4600B7000030B6003908C1003808C0003708A2
:102A5600BF003608BE000130CD000030CC0000308B
:102A6600CB000030CA00942D4A083607AE004B084A
:102A7600373DAF004C08383DB0004D08393DB10038
:102A86003108C5003008C4002F08C3002E08C20054
:102A96005108803AAE004508803A2E02031D5D2D8E
:102AA60044085002031D5D2D43084F02031D5D2D92
:102AB60042084E02031C602D612D852D4A084207EF
:102AC600AE004B08433DAF004C08443DB0004D08F6
:102AD600453DB1003108B9003008B8002F08B700ED
:102AE6002E08B6004208CE024308CF3B4408D03B2E
:102AF6004508D13B4A08BE074B08BF3D4C08C03DC0
:102B06004D08C13D4E08CE074F08CF3D5008D03D79
:102B16005108D13D0130CD36CC0CCB0CCA0C890BFB
:102B26008E2D4D084C044B044A04031D9B2D9C2DF1
:102B3600372D510850044F044E040319A32DA42D1C
:102B4600B82D01303E05AE0000303F05AF00003025
:102B56004005B00000304105B1002E08BE072F0821
:102B6600BF3D3008C03D3108C13D3E08AE003F08BC
:102B7600AF004008B0004108B1000130B200B137E3
:102B8600B00CAF0CAE0CB20BC22D00302E07CE002F
:102B960000302F3DCF000030303DD0003F30313D7A
:102BA600D1004608AE004708AF004808B000490803
:102BB600B1001730AE35AF0DB00DB10D890BDD2D5F
:102BC6002E08CE072F08CF3D3008D03D3108D13D25
:102BD6005108AD005008AC004F08AB004E08AA00E3
:102BE6000800200055088039E2005535E400D41F5E
:102BF600FD2DFE2DFF2D641464080319032E042EEB
:102C0600142E640A031D082E092E112E0030D5003D
:102C16000030D4000030D3000030D200D417D501E4
:102C26001C2E0030D5000030D4000030D300003018
:102C3600D20059088039E300630862060319242E7E
:102C4600252E262E62175935E300D81F2B2E2C2E43
:102C56002D2E631463080319312E322E422E630A79
:102C6600031D362E372E3F2E0030D9000030D800F7
:102C76000030D7000030D600D817D9014A2E0030D0
:102C8600D9000030D8000030D7000030D6006408E4
:102C9600630203184F2E502E742E621F532E542E8D
:102CA600562E8030E2066408E5006308E4006508F5
:102CB600E3005208E5005608D2006508D60053081E
:102CC600E5005708D3006508D7005408E500580802
:102CD600D4006508D8005508E5005908D5006508F0
:102CE600D900E5016308DA00DB015B08DD00640852
:102CF6005A02DC00031CDD035D08803ADE008030EA
:102D06005E02031D882E1A305C02031C8B2E8C2E4D
:102D1600C22E20005508540453045204031D942E59
:102D2600962E0130972E0030E5000030D500003099
:102D3600D4000030D3000030D2006308E400C92E6E
:102D4600651CA62EA72EB12E6508DA000130DA36EC
:102D5600890BAA2E5A080138E500B32E0310E50C9C
:102D6600521CB62EB72EB82EE5170130DA00D5372D
:102D7600D40CD30CD20CDA0BBA2E0130E4072000A7
:102D860063086402031CC82EC92EA32E621BCC2E18
:102D9600CD2E072F6408031DD12ED22EDB2E003038
:102DA600D5000030D4000030D3000030D200FF2F11
:102DB6005608D2075708D33D5808D43D5908D53D83
:102DC600551CE62EE72E912F651CEA2EEB2EF52ECE
:102DD6006508DA000130DA36890BEE2E5A0801381A
:102DE600E500F72E0310E50C521CFA2EFB2EFC2EE6
:102DF600E5170130DA00D537D40CD30CD20CDA0B38
:102E0600FE2E0130E407912F5508803ADA00590862
:102E1600803A5A02031D192F58085402031D192F10
:102E260057085302031D192F5608520203181C2F68
:102E36001D2F522FFF30DA00FF30DB00FF30DC00A1
:102E4600FF30DD0052085602DE005308573BDF0014
:102E56005408583BE0005508593BE1005E08DA0784
:102E66005F08DB3D6008DC3D6108DD3D5D08D5009F
:102E76005C08D4005B08D3005A08D2008030E20612
:102E86006503FF3AE5006508031D4A2F4B2F5A2FAD
:102E96000130D2070030D33DD43DD53D5A2F5608D8
:102EA600D2025708D33B5808D43B5908D53B55089E
:102EB600540453045204031D612F622F8D2F65089D
:102EC600031D662F672F8D2F0030D5000030D400EC
:102ED6000030D3000030D200FF2F0130D235D30DA1
:102EE600D40DD50D890B712FE51F7A2F7B2F7C2FE3
:102EF6005214651C7F2F802F842F0314650DE50067
:102F0600862F0310E50D640803198A2F8B2F8D2F4A
:102F16000130E402D41F902F912F702FE301E51F9B
:102F2600952F962FA42F65087F3903199B2F9C2F69
:102F36009F2F0130E300A42F521CA22FA32FA42FF2
:102F46009C2F63080319A82FA92FD22F0130D2076F
:102F56000030D33DD43DD53D551CB22FB32FD22FD3
:102F66005208DA005308DB005408DC005508DD007F
:102F76000130DE00DD37DC0CDB0CDA0CDE0BBD2F9E
:102F86005D08D5005C08D4005B08D3005A08D2005F
:102F9600640A0319CF2FD02FD22F0130E407640A19
:102FA6000319D62FD72FDC2F6408031DDB2FDC2F48
:102FB600EA2F0030D5000030D4000030D3000030B6
:102FC600D2006408031DE82FE92FEA2FE201641CF2
:102FD600ED2FEE2FF02FD417F22F7F30D405640893
:102FE600DA000130DA36890BF52F5A08D500E21FD0
:102FF600FD2FFE2FFF2FD517080069343734AC3468
:1030060031346834213422343334B4340F34143434
:10301600333468342134A234333438346334ED34F1
:103026003E34DA340F3449343F345E3498347B34DA
:103036003F34DA340F34C9343F342534AC347C346D
:103046003D3447341234DA34BD340D34F53411349A
:103056003E349834CA344C34BE34A934AA34AA3423
:023066003E34F6
:1036FA008B170B172E00991608000C309C31822468
:10370A009B310800640080010131890B882B003449
:10371A00FE0012001E00FE0B8E2B003423001B1429
:10372A001B18982B992B952B080023001B151B1986
:10373A009F2BA02B9C2B0800F100710822009A00F5
:10374A009E1CA82BA92BA52B080023009A12133024
:10375A0097001A08F03908389A009A16080074086F
:10376A007304720471040319BB2BBC2BBE2B80306B
:10377A00F4060800FE30F5001930F6000130F700B3
:10378A000530F800F901FA017530F2000630F3004D
:10379A009C311A249B31080022001F171F129F1008
:1037AA001F109F151E159C0144309B001D131E12ED
:1037BA009E169D171D161D119D100800F600220069
:1037CA0056087604F6007630F200F301F30A4C0844
:1037DA009C3107249B3176089C3149249B3108008F
:1037EA009B3182239B31883103209B310130200099
:1037FA00A0000030A1000030A200A3009C313124B7
:10380A009B310800F4009B3193239C31740890315A
:10381A0000209C317208860087010108903100203F
:10382A009C319B319A239C310800F4012A2C72089E
:10383A0074078600870101089B31A1239C31A030BF
:10384A000032890B252C0130F40773087402031C1B
:10385A002F2C302C1C2C08000430F9000030FA0000
:10386A0020002008210403193B2C3C2C3D2CF91480
:10387A00220823040319422C432C442C7914790876
:10388A009C3182249C310800F500220056087504F8
:10389A000438F5007530F200F301F30A4C089C3144
:1038AA0007249C317508FB3922005604F50075304F
:1038BA00F200F301F30A4C089C3107249C310800FA
:1038CA002100AD00FE30A3001930A4000130A5008C
:1038DA000630A6000430A700A8012D08A900200878
:1038EA00AA002108AB002208AC00A330F2000A307B
:1038FA00F3009C311A249C310800F8007808F0394A
:10390A009B31E3239C317808F7000430F735890BA3
:10391A008B2C7708F0399B31E3239C3104307802F1
:10392A000318982C992CA02C3430F700F230890B0C
:10393A009C2CF70B9C2C0800F501F601711CA62C97
:10394A00A72CAB2C7308F5077408F63D0130F33544
:10395A00F40D890BAC2C0130F236F10C890BB12C29
:10396A0071087204031DBA2CBB2CA32C7608F20032
:10397A007508F1000800533445344E345334493441
:10398A004E344734533445344E34533449344E3428
:10399A0047347C342F342D345C34463455344E3419
:1039AA00443441344D3445344E34543441344C3427
:1039BA00203448347A34ED2C20001610002D2000D3
:1039CA009610002D20001611002D20009611002DB2
:1039DA007208003A0319F22C002D7108013A0319F2
:1039EA00E12C033A0319E42C013A0319E72C073AAC
:1039FA000319EA2C002D0800F8007808F6000430B4
:103A0A00F636890B052D76080F39F7000430F7359D
:103A1A00890B0C2D7708F900220056087904F90061
:103A2A007930F200F301F30A4C089C3107249D31E6
:103A3A0079089C3149249D31080080302100A30671
:103A4A0027082000D500210026082000D4002100E4
:103A5A0025082000D300210024082000D2002100DC
:103A6A0023082000D900210022082000D8002100C4
:103A7A0021082000D700210020082000D600953117
:103A8A00F4259D31200055082100A3002000540888
:103A9A002100A200200053082100A10020005208A2
:103AAA002100A0000800D030FB00CA30890B5B2D32
:103ABA00FB0B5B2D30309D3101259D313430FB00ED
:103ACA00F230890B662DFB0B662D30309D310125B6
:103ADA009D310B30FB006230890B712DFB0B712D70
:103AEA00003230309D3101259D310B30FB006230B0
:103AFA00890B7D2DFB0B7D2D003220309D31012558
:103B0A009D310B30FB006230890B892DFB0B892D0F
:103B1A0000329B31F5239D310800200011103E0030
:103B2A003810200091103E00B810200011113E00FC
:103B3A003811200091113E003812200093173E00E0
:103B4A00CE13200093153E00CE11200013163E001E
:103B5A004E12200012123E004312200012103E00A4
:103B6A00431045144414200092103E00C310C5149B
:103B7A00C414200091163E00B8123D000F101630F2
:103B8A003E00A4003D004808E0391438C80049083E
:103B9A00E0391338C90017303E00A3001030A500E1
:103BAA003D000F1408003C343C3452344F34563430
:103BBA004534523420345434453441344D3420345D
:103BCA0035343E343E344934523420344434453456
:103BDA00543445344334543449344F344E344C34D9
:103BEA0041345334453452342034543455345234E5
:103BFA005234453454345434523441344E345334A8
:103C0A0046344F3452344D34203420342034203456
:103C1A00203420342034463441345334543420344C
:103C2A0046344F34553452344934453452342034AE
:103C3A0020342034203408302200D6000030D70047
:103C4A00D401D5010130CE000030CF004E30CC0077
:103C5A000030CD001030D2000030D3000230D00046
:103C6A000030D1009D3192259E319B31AA239E318D
:103C7A009B31D1239E319D3158259E319B31F523AD
:103C8A009E319B317D239E310130F1000030F200DC
:103C9A009C31E0249E310230F1000030F2009C3168
:103CAA00E0249E310330F1000030F2009C31E02420
:103CBA009E310430F1000030F2009C31E0249E3144
:103CCA0020001714971408009E3120269E312000E8
:103CDA00171629302200CB009630CA007F30890B94
:103CEA00742ECA0B742ECB0B742E2200DE01DF0158
:103CFA009B31BF239E31913165219E3180317620DF
:103D0A009E3122006108003A03198C2E9D2E60080C
:103D1A00003A03199D2E013A03199D2E033A0319FD
:103D2A009D2E013A03199D2E073A03199D2E9D2EA9
:103D3A0019305E065F04031DA32EA42E9D2E193092
:103D4A005E065F04031DAA2EAB2E7A2E34302200A3
:103D5A00CA00F130890BAF2ECA0BAF2E00327A2E71
:103D6A0080312A28F601F21FBB2EBC2EC32EF10980
:103D7A00F209F10A0319F20A0130F600F41FC62EFD
:103D8A00C72ECE2EF309F409F30A0319F40A0130F7
:103D9A00F606F701F801710872040319D52ED62E1A
:103DAA00032F0130F500E02E0130F135F20D890BB9
:103DBA00DA2E0130F507F21FE32EE42ED92E013058
:103DCA00F735F80D890BE52E72087402031DEF2EE4
:103DDA0071087302031CF22EF32EF82E7108F302F7
:103DEA007208F43B77140130F236F10C890BF92E84
:103DFA000130F502031D022F032FE42E7608031962
:103E0A00072F082F0D2FF709F809F70A0319F80ADF
:103E1A007808F2007708F100080003102000680D06
:103E2A00690DEF006F08031D1B2F1C2F252F003073
:103E3A00E9000030E8000030E7000030E600802F9B
:103E4A006608EA006708EB006808EC006908ED00FC
:103E5A001F30ED36EC0CEB0CEA0C890B2E2F6A089E
:103E6A00EE00E817FF30E605FF30E705FF30E8050A
:103E7A000030E9059630EF02EF1F442F452F5B2FE4
:103E8A006F08803A973E03184B2F4C2F4D2F1C2F4B
:103E9A000130E936E80CE70CE60C890B4E2F0130AD
:103EAA00EF07031D592F5A2F4D2F702F20306F0205
:103EBA00031C602F612F6B2F1C2F0130E635E70D95
:103ECA00E80DE90D890B632F0130EF026F08031D1E
:103EDA006F2F702F622F6E080319742F752F802F82
:103EEA00E609E709E809E909E60A0319E70A0319ED
:103EFA00E80A0319E90A0800230049082000A50076
:103F0A00230048082000A400230047082000A3003B
:103F1A00230046082000A2007408A5007308A40024
:103F2A007208A3007108A2002208F5002308F6000F
:103F3A002408F7002508F8001730F836F70CF60CB5
:103F4A00F50C890BA22FFF307505A000003076050D
:103F5A00A10020082104031DB32FB42FD52F220856
:103F6A00F5002308F6002408F7002508F8000130B8
:103F7A00F535F60DF70DF80D890BBD2F7808770486
:103F8A0076047504031DCA2FCB2FD02F0230F100FF
:103F9A000030F200FF2F0330F1000030F200FF2F53
:103FAA00200A2104031DDA2FDB2FFB2F2208F5003C
:103FBA002308F6002408F7002508F8000930F5352B
:103FCA00F60DF70DF80D890BE42F780877047604BF
:103FDA0075040319F12FF32F0130F42F0030F90083
:103FEA00FA017908F1007A08F200FF2F0430F10093
:063FFA000030F200080097
:020000040001F9
:0A000E008C3FFF3F9F3FFF3FFF3F85
:00000001FF
